:020000040800F2
:1000000068070020890100087504000889030008BA
:100010007104000865020008430D0008000000009C
:10002000000000000000000000000000AD09000812
:1000300069020008000000001D070008A101000877
:10004000A3010008A3010008A3010008A301000800
:10005000A3010008A3010008A3010008A3010008F0
:10006000A3010008A3010008A3010008A3010008E0
:10007000A3010008A3010008A3010008A3010008D0
:10008000A3010008A3010008A3010008A3010008C0
:10009000A3010008A3010008A3010008A3010008B0
:1000A000A3010008A3010008A3010008A3010008A0
:1000B000A3010008A3010008A3010008A301000890
:1000C000A3010008A3010008A3010008A301000880
:1000D000A3010008210B0008A3010008A3010008E8
:1000E000A3010008A3010008A301000800F002F822
:1000F00000F03AF80AA090E8000C82448344AAF188
:100100000107DA4501D100F02FF8AFF2090EBAE885
:100110000F0013F0010F18BFFB1A43F0010318473B
:10012000FC0E00001C0F0000103A24BF78C878C1F4
:10013000FAD8520724BF30C830C144BF04680C60ED
:10014000704700000023002400250026103A28BF35
:1001500078C1FBD8520728BF30C148BF0B60704739
:100160001FB51FBD10B510BD00F033F81146FFF7E5
:10017000F7FF00F033FE00F051F803B4FFF7F2FF91
:1001800003BC00F0E0FD0000094880470948004733
:10019000FEE7FEE7FEE7FEE7FEE7FEE7FEE7FEE737
:1001A000FEE7FEE704480549054A064B7047000094
:1001B000C10A0008ED00000868010020680700205F
:1001C000680300206803002070477047704770473D
:1001D0007047754600F028F8AE460500694653465C
:1001E00020F00700854618B020B5FFF7DBFFBDE81B
:1001F00020404FF000064FF000074FF000084FF08E
:10020000000B21F00701AC46ACE8C009ACE8C0091E
:10021000ACE8C009ACE8C0098D4670470446AFF3AE
:1002200000802046FFF7A9FF004870470401002026
:1002300008B50121042000F083FA2020ADF8000069
:1002400010208DF8030002208DF8020020210448C0
:1002500000F098F86946024800F007F808BD000071
:100260000008014000BFFEE770472DE9F04102465B
:1002700000250026002000230024002791F803C059
:100280000CF00F0591F803C00CF0100CBCF1000F3E
:1002900003D091F802C04CEA050591F800C0BCF10A
:1002A000000F31D0146800202BE04FF0010C0CFA45
:1002B00000F3B1F800C00CEA03069E4220D183008F
:1002C0004FF00F0C0CFA03F7BC4305FA03FC4CEAA1
:1002D000040491F803C0BCF1280F06D14FF0010CC3
:1002E0000CFA00FCC2F814C00AE091F803C0BCF19B
:1002F000480F05D14FF0010C0CFA00FCC2F810C0F9
:10030000401C0828D1D31460B1F800C0BCF1FF0F25
:1003100034DD546800202EE000F1080C4FF0010895
:1003200008FA0CF3B1F800C00CEA03069E4221D192
:1003300083004FF00F0C0CFA03F7BC4305FA03FCE3
:100340004CEA040491F803C0BCF1280F05D100F178
:10035000080C08FA0CF8C2F8148091F803C0BCF13C
:10036000480F07D100F1080C4FF0010808FA0CF80B
:10037000C2F81080401C0828CED35460BDE8F0813C
:10038000416170470161704700BFFEE708B5012178
:10039000042000F0D5F90820ADF8000028208DF8E1
:1003A000030002208DF8020069460248FFF75DFF56
:1003B00008BD00000008014010B508480068012889
:1003C00009D10A2000F0E4FC04480068012800D1AB
:1003D00010BD0020FCE70020FAE700000C012142DC
:1003E00008B501210C2000F0ABF941F60500ADF88D
:1003F000000010208DF8030002208DF802006946ED
:100400001948FFF732FF1E20ADF8000010208DF8CC
:10041000030002208DF8020069461448FFF725FF0B
:100420004FF400611048FFF7ADFF4FF480510E48C4
:10043000FFF7A8FF04210D48FFF7A4FF02210B4896
:10044000FFF7A0FF01210848FFF79CFF04210648A1
:10045000FFF798FF08210548FFF794FF1021034894
:10046000FFF790FF08BD000000080140000C0140AC
:1004700000BFFEE77047000000B587B001211020E3
:1004800000F05EF910208DF81B0003208DF81A0093
:100490004FF48150ADF8180006A92548FFF7E5FE96
:1004A0004FF481512248FFF76BFF4FF48040ADF8C5
:1004B000180028208DF81B0006A91E48FFF7D5FE5E
:1004C0004FF480411B48FFF75BFF00F0B3F90021B8
:1004D000194800F033FA0020ADF804004FF48270A0
:1004E000ADF806000020ADF80800ADF80A00ADF840
:1004F0000C004FF40070ADF80E001820ADF810009D
:100500000020ADF812000720ADF8140001A90A4838
:1005100000F02EFA0121084800F010FA00200749E7
:10052000086001200649C1F8B00107B000BD000015
:10053000000C01400010014000380040948121422D
:100540000080214270B5044600200749086020461B
:1005500000F0B6F9FF2000F0B3F905460120034989
:10056000C1F8B001284670BDB0812142008021420F
:1005700010B50446002014490860052213493020B4
:1005800000F05EF8052212492A2000F059F80121F6
:10059000212000F073F80121222000F06FF81A21C9
:1005A000242000F06BF82146252000F067F80F2189
:1005B000262000F063F80E21202000F05FF80120D3
:1005C0000449C1F8940110BD948121421010000823
:1005D000151000080080214270B50546102000F07B
:1005E00099F900201349086020222946A02000F034
:1005F00027F801201049C1F8940100BF0F48006896
:100600000028FBD10720FFF79DFF04462146272045
:1006100000F034F804F0100028B1FF21E12000F0D0
:100620002DF8102070BD04F0200008B12020F9E75B
:10063000FF20F7E7948121420080214220012142DE
:100640002DE9F04107460C46154600200A4908608E
:10065000384600F035F98046002605E014F8010B15
:1006600000F02EF9701CC6B2AE42F7DB0120024941
:1006700008604046BDE8F081B081214270B5054672
:100680000C46002007490860284600F019F9064684
:10069000204600F015F901200349C1F8B0013046A9
:1006A00070BD0000B08121420080214270B5002160
:1006B00000230F22C47804B3154C246804F4E064CA
:1006C000C4F5E064210AC1F10403CA40447804FA85
:1006D00003F184781440214309010E4C0678A1559A
:1006E000047804F01F050124AC4005786D11AD00BD
:1006F00005F1E025C5F8004109E0047804F01F0584
:100700000124AC40044D0678761145F8264070BDB2
:100710000CED00E000E400E080E100E07047000044
:1007200029B1064AD2690243044BDA6104E0034A64
:10073000D2698243014BDA61704700000010024029
:1007400029B1064A92690243044B9A6104E0034AC4
:1007500092698243014B9A61704700000010024089
:1007600030B500210022002400232D4D6D6805F0D6
:100770000C0121B1042905D0082923D105E0294D18
:10078000056022E0274D05601FE0254D6D6805F4EA
:100790007012234D6D6805F48034022505EB9242FA
:1007A0001CB9214D554305600BE01D4D6D6805F4E6
:1007B00000351DB11C4D5543056002E0194D5543F0
:1007C000056002E0174D056000BF00BF144D6D6865
:1007D00005F0F0010909154D6B5C0568DD404560C9
:1007E0000F4D6D6805F4E061090A104D6B5C4568BA
:1007F000DD4085600A4D6D6805F46051C90A0B4DF6
:100800006B5C4568DD40C560054D6D6805F4404191
:10081000890B074D6B5CC568B5FBF3F5056130BD11
:100820000010024000127A0000093D001C00002068
:100830002C00002000B587B001218803FFF770FF6E
:100840004FF46040ADF8180018208DF81B0003200D
:100850008DF81A0006A91848FFF707FD4FF460410C
:100860001548FFF78FFD0020ADF804004FF48270AB
:10087000ADF806000020ADF808000220ADF80A002F
:100880000120ADF80C004002ADF80E003820ADF8A4
:1008900010000020ADF812000720ADF8140001A9E7
:1008A000064800F065F80121044800F047F8FF20F1
:1008B00000F006F807B000BD000C01400038004011
:1008C00070B50546002405E0601CC4B2C82C01DDEB
:1008D000002070BD02210E4800F03CF80028F3D043
:1008E00029460B4800F042F8002405E0601CC4B221
:1008F000C82C01DD0020ECE70121054800F02AF8B2
:100900000028F3D0024800F02EF8C0B2E1E7000062
:100910000038004010B50446074800884FF6C771FC
:1009200008400549088008460088204308800121C6
:10093000014800F003F810BD0038004021B10288E2
:1009400042F04002028004E002884FF6BF731A4072
:10095000028070470246002013890B400BB1012032
:1009600000E0002070470146888970478181704708
:1009700010B50022028802F441520B884C882343B0
:100980008C882343CC8823430C8923434C892343FD
:100990008C892343CC8923431A430280838B4FF2F3
:1009A000FF74234083830B8A038210BD704710B508
:1009B00000F002F810BD00000CB50020019000907E
:1009C0003348006840F480303149086000BF304847
:1009D000006800F4003000900198401C01900098DD
:1009E00018B90198B0F5A06FF1D12948006800F45A
:1009F000003010B10120009001E00020009000982C
:100A0000012843D12348006840F0100021490860C4
:100A10000846006820F0030008600846006840F0BF
:100A2000020008601A484068194948600846406852
:100A300048600846406840F4806048600846406866
:100A400020F47C1048600846406840F4E810486094
:100A50000846006840F08070086000BF0C480068DD
:100A600000F000700028F9D00948406820F0030029
:100A7000074948600846406840F00200486000BFEF
:100A80000348406800F00C000828F9D10CBD0000B4
:100A90000010024000200240042808D14FF0E0215D
:100AA000096941F004014FF0E022116107E04FF0C5
:100AB000E021096921F004014FF0E0221161704743
:100AC00010B51348006840F001001149086008465D
:100AD0004068104908400E494860084600680E49C1
:100AE00008400B4908600846006820F48020086030
:100AF0000846406820F4FE0048604FF41F008860FC
:100B0000FFF755FF4FF000600449086010BD00007A
:100B1000001002400000FFF8FFFFF6FE08ED00E0C5
:100B200010B540F225511D4800F04AF810B31B489B
:100B300000F002F9C4B21A48008800F40040C8B9B5
:100B40001748008800F4804060B10A2C03D00020D0
:100B50001349088020E01248008840F40040104902
:100B6000088019E00D2C06D10D48008840F4804023
:100B70000B49088010E00A480088C0F30D000949BD
:100B80000C5407480088401C054908800846008826
:100B9000C72801DD0020088010BD0000003801409A
:100BA000380000203C00002021B1828942F400522C
:100BB000828104E082894DF6FF731A40828170477A
:100BC00070B50246002400230025002040F66A1676
:100BD000B14200D100BFC1F3421501F01F0301264D
:100BE00006FA03F3012D02D19689334006E0022D67
:100BF00002D1168A334001E0968A33400C12012656
:100C000006FA04F41688344013B10CB1012000E058
:100C1000002070BDF0B5034600240026002500200A
:100C200040F66A17B94200D100BF1846C1F342141A
:100C300001F01F06012707FA06F5012C01D10C303F
:100C400004E0022C01D1103000E014301AB1076822
:100C50002F43076002E00768AF430760F0BD000064
:100C60002DE9F04786B005460E460024A24600BF97
:100C7000A1460027B08900B100BF2F462C8A4CF650
:100C8000FF700440F08804432C82AC894EF6F310C8
:100C90000440B08831890843718908430443AC811A
:100CA000AC8A4FF6FF400440B0890443AC8201A8EF
:100CB000FFF756FD1F48874202D1DDF810A001E082
:100CC000DDF80CA0A88900F4004040B10AEBCA008E
:100CD00000EB0A1031684900B0FBF1F807E00AEBBD
:100CE000CA0000EB0A1031688900B0FBF1F86420FB
:100CF000B8FBF0F004012009642101FB1089A889E8
:100D000000F4004040B1322000EBC900B0FBF1F02C
:100D100000F00700044308E0322000EB09106421D2
:100D2000B0FBF1F000F00F0004432C8106B0BDE8E9
:100D3000F08700000038014001468888C0F30800B1
:100D4000704700BFFEE700BF7047000010B56FF0AE
:100D50000400FFF7A1FE0A4800680A49B0FBF1F061
:100D6000094908700846007800EB4001C1EBC0104B
:100D70004FF6FF7101EAC0000449088010BD000071
:100D80000800002000127A0030000020320000200D
:100D90000146114A12884A434FF0E0235A6100226B
:100DA0009A611A46126942F001021A6100BF4FF0BF
:100DB000E022106900F001021AB100F48032002A2A
:100DC000F5D04FF0E022126922F001024FF0E0234B
:100DD0001A6100229A61704732000020FFF7B6FFC7
:100DE000FFF7D4FAFFF7FCFAFFF722FA4FF4E130ED
:100DF00000F0BEF8FFF740FB3220FFF7B9FB0520FB
:100E000058490870ADE0FFF7D7FA0128FAD15548E4
:100E1000FFF7E2FB2028F5D120215348FFF7B0FA75
:100E20004FF400615048FFF7ABFA4FF480514E4841
:100E3000FFF7A6FA04214D48FFF7A2FA02214B481A
:100E4000FFF79EFA01214848FFF79AFA0421464825
:100E5000FFF796FA08214548FFF792FA1021434818
:100E6000FFF78EFA4FF4FA70FFF792FF20213E4809
:100E7000FFF788FA4FF400613B48FFF783FA4FF41D
:100E800080513948FFF77EFA04213848FFF77AFA93
:100E900002213648FFF776FA01213348FFF772FA4C
:100EA00004213148FFF76EFA08213048FFF76AFA4B
:100EB00010212E48FFF766FA4FF4FA70FFF768FF2B
:100EC00000244CE04FF400612748FFF759FA4FF433
:100ED00080512548FFF754FA04212448FFF750FABF
:100EE00002212248FFF74CFA01211F48FFF748FA78
:100EF00004211D48FFF744FA08211C48FFF740FA77
:100F000010211A48FFF73CFA4FF4FA70FFF740FF40
:100F10004FF400611448FFF735FA4FF4805112483E
:100F2000FFF730FA04211148FFF72CFA02210F488D
:100F3000FFF728FA01210C48FFF724FA04210A4898
:100F4000FFF720FA08210948FFF71CFA102107488B
:100F5000FFF718FA4FF4FA70FFF71AFF641C052C1C
:100F6000B0DB50E70400002000080140000C014005
:100F700010B586B00446012144F20400FFF7E0FBFF
:100F80004FF40070ADF8140003208DF816001820FF
:100F90008DF8170005A91C48FFF767F94FF480602A
:100FA000ADF8140004208DF8170005A91648FFF7C6
:100FB0005CF925208DF8000003208DF801008DF8E4
:100FC000020001208DF803006846FFF76FFB0194D3
:100FD0000020ADF80800ADF80A00ADF80C00ADF83F
:100FE00010000C20ADF80E0001A90848FFF738FEEC
:100FF000012240F225510548FFF70CFE012103486C
:10100000FFF7D2FD06B010BD0008014000380140D6
:101010003443101001344310100100003C1000084C
:10102000000000203C0000002801000878100008A3
:101030003C0000202C0700004401000800000000D4
:101040000000000000A24A040000000000000000B0
:10105000010203040607080900000000010203045E
:101060000102030406070809020406080000000044
:08107000000000000000000078
:040000050800018965
:00000001FF
