:020000040800F2
:1000000060070020990100088D060008C905000856
:1000100089060008A5040008570F0008000000002A
:10002000000000000000000000000000C10B0008FC
:10003000A90400080000000031090008B10100080F
:10004000B3010008B3010008B3010008B3010008C0
:10005000B3010008B3010008B3010008B3010008B0
:10006000B3010008B3010008B3010008B3010008A0
:10007000B3010008B3010008B3010008B301000890
:10008000B3010008B3010008B3010008B301000880
:10009000B3010008B3010008B3010008B301000870
:1000A000B3010008B3010008B3010008B301000860
:1000B000B3010008B3010008B3010008B301000850
:1000C000B3010008B3010008B3010008B301000840
:1000D000B3010008350D0008B3010008B3010008A2
:1000E000B3010008B3010008B301000800F002F8F2
:1000F00000F042F80AA090E8000C82448344AAF180
:100100000107DA4501D100F037F8AFF2090EBAE87D
:100110000F0013F0010F18BFFB1A43F0010318473B
:100120007411000094110000103A24BF78C878C1FF
:10013000FAD8520724BF30C830C144BF04680C60ED
:10014000704700000023002400250026103A28BF35
:1001500078C1FBD8520728BF30C148BF0B60704739
:10016000642900F07B80782900F0B480002070477B
:100170001FB51FBD10B510BD00F064F91146FFF7A3
:10018000F7FF00F043FF00F082F903B4FFF7F2FF3E
:1001900003BC00F0E2FE0000094880470948004720
:1001A000FEE7FEE7FEE7FEE7FEE7FEE7FEE7FEE727
:1001B000FEE7FEE704480549054A064B7047000084
:1001C000D50C0008ED000008600100206007002049
:1001D0006003002060030020704700000FB4044952
:1001E00010B503AA029800F0FFF810BC5DF814FBEC
:1001F000300000202DE9F0410E4604460020206228
:100200002046E168884730B3252805D0D4E901218C
:100210009047206A401CF2E7E168204600278847A3
:10022000050018D0A5F14100192802D820354FF457
:1002300000673246294620462760FFF791FF40B10C
:10024000012804D0F61D26F007060836D8E7361D2B
:10025000D6E72846DAE7206ABDE8F0812DE9F041CB
:100260000646002410687529314616A510D0AFF354
:100270000080002802DA404213A507E031688A07AF
:1002800001D512A502E0490704D511A5012401E01A
:10029000AFF3008000210A2206F1240709E0B0FB39
:1002A000F2FCB0FBF2F302FB1C003030785418462D
:1002B000491C0028F3D123462A463046BDE8F041C8
:1002C00000F038B8000000002D0000002B000000F6
:1002D0002000000070B504460D4621461068AFF3BB
:1002E00000802188090502D50F4A7A4402E00E4AAF
:1002F0007A440E32002104F1240305E000F00F06D9
:100300000009965D5E54491C0028F7D1207800232F
:10031000000704D5702D02D009B102231132204606
:10032000BDE8704000F006B87C0F000070477047D1
:10033000704770472DE9F0470D46994692460446AE
:1003400000F124080168880604D5E06921F0100155
:10035000216000E00120A84201DD471B00E00027EA
:10036000A1697A1902EB0900081AA0612078C00679
:1003700002D42046AFF30080002608E0D4E9012132
:100380001AF806009047206A401C761C20624E45F1
:10039000F4DB2078C0060AD52046AFF3008006E0E3
:1003A000D4E9012130209047206A401C2062381E89
:1003B000A7F10107F4DC07E0D4E9012118F80500F2
:1003C0009047206A401C2062281EA5F10105F3DC3D
:1003D0002046AFF300802078000602D50220BDE859
:1003E000F0870120FBE70000074B70B50D467B440A
:1003F00000F011F80446284600F020F810B14FF044
:10040000FF3070BD204670BDFF0B000001694A1C23
:1004100002610878704700B58FB0CDE90131002145
:10042000059105497944CDE9031011466846FFF767
:10043000E1FE0FB000BD0000E5FFFFFF007B00F014
:1004400080007047754600F029F8AE460500694601
:10045000534620F00700854618B020B5FFF7AAFEE6
:10046000BDE820404FF000064FF000074FF00008B5
:100470004FF0000B21F00701AC46ACE8C009ACE836
:10048000C009ACE8C009ACE8C0098D467047044615
:10049000AFF300802046FFF778FE00000048704769
:1004A0000001002000BFFEE770472DE9F041024641
:1004B00000250026002000230024002791F803C017
:1004C0000CF00F0591F803C00CF0100CBCF1000FFC
:1004D00003D091F802C04CEA050591F800C0BCF1C8
:1004E000000F31D0146800202BE04FF0010C0CFA03
:1004F00000F3B1F800C00CEA03069E4220D183004D
:100500004FF00F0C0CFA03F7BC4305FA03FC4CEA5E
:10051000040491F803C0BCF1280F06D14FF0010C80
:100520000CFA00FCC2F814C00AE091F803C0BCF158
:10053000480F05D14FF0010C0CFA00FCC2F810C0B6
:10054000401C0828D1D31460B1F800C0BCF1FF0FE3
:1005500034DD546800202EE000F1080C4FF0010853
:1005600008FA0CF3B1F800C00CEA03069E4221D150
:1005700083004FF00F0C0CFA03F7BC4305FA03FCA1
:100580004CEA040491F803C0BCF1280F05D100F136
:10059000080C08FA0CF8C2F8148091F803C0BCF1FA
:1005A000480F07D100F1080C4FF0010808FA0CF8C9
:1005B000C2F81080401C0828CED35460BDE8F081FA
:1005C000416170470161704700BFFEE708B5082030
:1005D000ADF8000028208DF8030002208DF80200FD
:1005E00008210448FFF7ECFF69460248FFF75DFF6A
:1005F00008BD00000008014008B501210C2000F0F2
:10060000A9F941F60500ADF8000010208DF80300AF
:1006100002208DF8020069461948FFF746FF1E20A8
:10062000ADF8000010208DF8030002208DF80200C4
:1006300069461448FFF739FF4FF400611048FFF78F
:10064000C1FF4FF480510E48FFF7BCFF04210D4855
:10065000FFF7B8FF02210B48FFF7B4FF012108485C
:10066000FFF7B0FF04210648FFF7ACFF082105485B
:10067000FFF7A8FF10210348FFF7A4FF08BD000003
:1006800000080140000C014000BFFEE77047000079
:1006900000B587B010208DF81B0003208DF81A00DC
:1006A0004FF48150ADF8180006A92548FFF7FDFE6C
:1006B0004FF481512248FFF783FF4FF48040ADF89B
:1006C000180028208DF81B0006A91E48FFF7EDFE34
:1006D0004FF480411B48FFF773FF00F0B5F900218C
:1006E000194800F035FA0020ADF804004FF482708C
:1006F000ADF806000020ADF80800ADF80A00ADF82E
:100700000C004FF40070ADF80E001820ADF810008A
:100710000020ADF812000720ADF8140001A90A4826
:1007200000F030FA0121084800F012FA00200749D1
:10073000086001200649C1F8B00107B000BD000003
:10074000000C01400010014000380040948121421B
:100750000080214210B5044600201249086005229D
:1007600011492A2000F076F80121212000F090F8AC
:100770000121222000F08CF82146252000F088F885
:100780002021312000F084F80F21262000F080F88D
:100790000F21202000F07CF801200449C1F89401C9
:1007A00010BD0000948121426512000800802142A2
:1007B0002DE9F04107460D46164600200A4908601B
:1007C000384600F087F98046002405E0FF2000F05D
:1007D00081F92855601CC4B2B442F7DB01200249FC
:1007E00008604046BDE8F081B081214270B5044602
:1007F000002007490860204600F06CF9FF2000F057
:1008000069F9054601200349C1F8B001284670BDC9
:10081000B08121420080214270B50446102000F0D2
:1008200083F90720FFF7E2FF05462946272000F05D
:100830002FF805F0400050B1202221466120FFF73B
:10084000B7FFFF21E22000F023F8002070BD012057
:10085000FCE700002DE9F04107460C461546002054
:100860000A490860384600F035F98046002605E060
:1008700014F8010B00F02EF9701CC6B2AE42F7DB83
:100880000120024908604046BDE8F081B081214264
:1008900070B505460C46002007490860284600F060
:1008A00019F90646204600F015F901200349C1F860
:1008B000B001304670BD0000B0812142008021426D
:1008C00070B5002100230F22C47804B3154C2468AE
:1008D00004F4E064C4F5E064210AC1F10403CA40F1
:1008E000447804FA03F184781440214309010E4C42
:1008F0000678A155047804F01F050124AC40057862
:100900006D11AD0005F1E025C5F8004109E004785E
:1009100004F01F050124AC40044D0678761145F81B
:10092000264070BD0CED00E000E400E080E100E056
:100930007047000029B1064AD2690243044BDA61CC
:1009400004E0034AD2698243014BDA617047000038
:100950000010024029B1064A92690243044B9A6191
:1009600004E0034A92698243014B9A617047000098
:100970000010024030B500210022002400232D4D3C
:100980006D6805F00C0121B1042905D0082923D197
:1009900005E0294D056022E0274D05601FE0254D4B
:1009A0006D6805F47012234D6D6805F480340225DE
:1009B00005EB92421CB9214D554305600BE01D4DDE
:1009C0006D6805F400351DB11C4D5543056002E00E
:1009D000194D5543056002E0174D056000BF00BF8B
:1009E000144D6D6805F0F0010909154D6B5C056843
:1009F000DD4045600F4D6D6805F4E061090A104D5A
:100A00006B5C4568DD4085600A4D6D6805F460519A
:100A1000C90A0B4D6B5C4568DD40C560054D6D68CE
:100A200005F44041890B074D6B5CC568B5FBF3F5D8
:100A3000056130BD0010024000127A0000093D003F
:100A4000180000202800002000B587B0012188038D
:100A5000FFF770FF4FF46040ADF8180018208DF8D4
:100A60001B0003208DF81A0006A91848FFF71DFD8A
:100A70004FF460411548FFF7A5FD0020ADF80400D4
:100A80004FF48270ADF806000020ADF80800022097
:100A9000ADF80A000120ADF80C004002ADF80E00E0
:100AA0003820ADF810000020ADF812000720ADF896
:100AB000140001A9064800F065F80121044800F07F
:100AC00047F8FF2000F006F807B000BD000C014019
:100AD0000038004070B50546002405E0601CC4B233
:100AE000C82C01DD002070BD02210E4800F03CF84A
:100AF0000028F3D029460B4800F042F8002405E016
:100B0000601CC4B2C82C01DD0020ECE701210548BF
:100B100000F02AF80028F3D0024800F02EF8C0B206
:100B2000E1E700000038004010B50446074800889F
:100B30004FF6C771084005490880084600882043E1
:100B400008800121014800F003F810BD0038004082
:100B500021B1028842F04002028004E002884FF690
:100B6000BF731A40028070470246002013890B4071
:100B70000BB1012000E000207047014688897047D2
:100B80008181704710B50022028802F441520B881F
:100B90004C8823438C882343CC8823430C892343EC
:100BA0004C8923438C892343CC8923431A430280F5
:100BB000838B4FF2FF74234083830B8A038210BD23
:100BC000704710B500F002F810BD00000CB5002011
:100BD000019000903348006840F48030314908604B
:100BE00000BF3048006800F4003000900198401CBD
:100BF0000190009818B90198B0F5A06FF1D129487B
:100C0000006800F4003010B10120009001E00020E5
:100C100000900098012843D12348006840F010005C
:100C2000214908600846006820F003000860084673
:100C3000006840F0020008601A484068194948609E
:100C40000846406848600846406840F48060486054
:100C50000846406820F47C1048600846406840F42C
:100C6000E81048600846006840F08070086000BFE7
:100C70000C48006800F000700028F9D0094840686E
:100C800020F00300074948600846406840F0020031
:100C9000486000BF0348406800F00C000828F9D104
:100CA0000CBD00000010024000200240042808D1C2
:100CB0004FF0E021096941F004014FF0E022116199
:100CC00007E04FF0E021096921F004014FF0E02234
:100CD0001161704710B51348006840F001001149D8
:100CE000086008464068104908400E4948600846B8
:100CF00000680E4908400B4908600846006820F467
:100D0000802008600846406820F4FE0048604FF4E8
:100D10001F008860FFF755FF4FF00060044908602E
:100D200010BD0000001002400000FFF8FFFFF6FEBB
:100D300008ED00E010B540F225511D4800F04AF8DA
:100D400010B31B4800F002F9C4B21A48008800F43E
:100D50000040C8B91748008800F4804060B10A2CF0
:100D600003D000201349088020E01248008840F496
:100D700000401049088019E00D2C06D10D4800886C
:100D800040F480400B49088010E00A480088C0F316
:100D90000D0009490C5407480088401C054908808B
:100DA00008460088C72801DD0020088010BD00002B
:100DB00000380140340000203800002021B1828931
:100DC00042F40052828104E082894DF6FF731A409A
:100DD0008281704770B50246002400230025002060
:100DE00040F66A16B14200D100BFC1F3421501F0CE
:100DF0001F03012606FA03F3012D02D19689334021
:100E000006E0022D02D1168A334001E0968A334073
:100E10000C12012606FA04F41688344013B10CB102
:100E2000012000E0002070BDF0B50346002400263C
:100E30000025002040F66A17B94200D100BF1846CD
:100E4000C1F3421401F01F06012707FA06F5012C31
:100E500001D10C3004E0022C01D1103000E014303C
:100E60001AB107682F43076002E00768AF430760C5
:100E7000F0BD00002DE9F04786B005460E4600247F
:100E8000A24600BFA1460027B08900B100BF2F468F
:100E90002C8A4CF6FF700440F08804432C82AC8905
:100EA0004EF6F3100440B088318908437189084335
:100EB0000443AC81AC8A4FF6FF400440B089044340
:100EC000AC8201A8FFF756FD1F48874202D1DDF82A
:100ED00010A001E0DDF80CA0A88900F4004040B1AA
:100EE0000AEBCA0000EB0A1031684900B0FBF1F8C8
:100EF00007E00AEBCA0000EB0A1031688900B0FB7A
:100F0000F1F86420B8FBF0F004012009642101FB32
:100F10001089A88900F4004040B1322000EBC900DC
:100F2000B0FBF1F000F00700044308E0322000EBD2
:100F300009106421B0FBF1F000F00F0004432C8194
:100F400006B0BDE8F08700000038014001468888FF
:100F5000C0F30800704700BFFEE700BF7047000005
:100F600010B56FF00400FFF7A1FE0A4800680A49B7
:100F7000B0FBF1F0094908700846007800EB400129
:100F8000C1EBC0104FF6FF7101EAC00004490880B0
:100F900010BD00000400002000127A002C00002088
:100FA0002E0000200146114A12884A434FF0E023E8
:100FB0005A6100229A611A46126942F001021A61CE
:100FC00000BF4FF0E022106900F001021AB100F4F6
:100FD0008032002AF5D04FF0E022126922F001029F
:100FE0004FF0E0231A6100229A6170472E00002022
:100FF00000BF054A128802F04002002AF9D0C2B2AE
:10100000014B1B1D1A80704700380140FFF7A8FFF5
:10101000FFF7DCFAFFF7F0FA4FF4E13000F0D0F818
:10102000FFF736FB0020FFF795FB53A0FFF7D6F83C
:10103000A0E05448FFF7F0FB002871D15148007838
:1010400001280ED14F4801784FA0FFF7C7F8642060
:10105000FFF780FB04E04B48017850A0FFF7BEF893
:10106000F9E74848007802280ED14648017846A0A2
:10107000FFF7B4F86420FFF76DFB04E04148017806
:1010800046A0FFF7ABF8F9E73E48007803280ED1F9
:101090003C4801783CA0FFF7A1F86420FFF75AFB19
:1010A00004E0384801783DA0FFF798F8F9E73548A3
:1010B000007804280ED13348017833A0FFF78EF86A
:1010C0006420FFF747FB04E02E48017833A0FFF7C8
:1010D00085F8F9E72B48007805280ED129480178D2
:1010E00029A0FFF77BF86420FFF734FB04E02548D4
:1010F00001782AA0FFF772F8F9E72248007806285D
:101100000FD12048017820A0FFF768F86420FFF78E
:1011100021FB04E01B48017820A0FFF75FF8F9E706
:1011200012E018480078072811D11648017816A057
:10113000FFF754F86420FFF70DFB04E01148017835
:1011400016A0FFF74BF8F9E719A0FFF747F81B487F
:101150000078462802DD00201849087017480078FA
:101160000A301649087008460078FFF7F3FA0320A2
:10117000FFF718FF5DE70000BFAACABCB4F0CCE2DD
:101180000D0A000001000020C7C0B4F0D1A1CAD6EA
:101190003A2564BAC5D1A1CAD60D0A00C7C0B4F0B9
:1011A000D1A1CAD63A2578BAC5D1A1CAD60D0A00AE
:1011B000B5C8B4FDC7C0B4F00D0A0000000000209F
:1011C00010B586B00446012144F20400FFF7C2FBCB
:1011D0004FF40070ADF8140003208DF816001820AD
:1011E0008DF8170005A91C48FFF75FF94FF48060E0
:1011F000ADF8140004208DF8170005A91648FFF774
:1012000054F925208DF8000003208DF801008DF899
:10121000020001208DF803006846FFF751FB01949E
:101220000020ADF80800ADF80A00ADF80C00ADF8EC
:1012300010000C20ADF80E0001A90848FFF71AFEB7
:10124000012240F225510548FFF7EEFD0121034838
:10125000FFF7B4FD06B010BD0008014000380140A2
:10126000344310100134431010013031323334351F
:1012700036373839414243444546403058003031D2
:1012800032333435363738396162636465664030ED
:1012900078000000B41200080000002038000000B0
:1012A00028010008EC120008380000202807000080
:1012B000440100080000000000A24A0400000000F1
:1012C00000000000010203040607080900000000F6
:1012D00001020304010203040607080902040608C8
:0C12E00000000000000000000000000002
:040000050800019955
:00000001FF
